:020000040000FA
:02000000BB281B
:100008007E1480310B1101302000C8070030C93D33
:100018004908803AF00081307002031D1528F53038
:100028004802031C432820004A034B040319B9283B
:10003800C801C90121009D149D1820281C08F00042
:10004800F10170082000CE007108CF004F08803AF7
:10005800F00080307002031D33284B304E02031C21
:10006800402801302100E8000030E900013020007C
:10007800CA000030CB0043282100E801E901200034
:100088008C197A280130D6070030D73D6308803AAA
:10009800F0005708803A7002031D5428560862027F
:1000A80003187E28200052085304031D7E280130BF
:1000B8002100BE000030BF000130C0070030C13D44
:1000C800EC01ED01FB01FB0A01302000E4000030E7
:1000D800E5000130D2000030D3000C08F000F10137
:1000E80070082100EA007108EB007E28D601D701CC
:1000F800D201D30120000C1AB5280130D4070030F2
:10010800D53D6308803AF0005508803A7002031D17
:100118008F28540862020318B92820005008510497
:10012800031DB92802302100BE000030BF00013095
:10013800EC070030ED3DC001C101FB01FB0A0130B5
:100148002000E4000030E5000130D0000030D1008C
:100158000C08F000F10170082100EA007108EB00BA
:10016800B928D401D501D001D1017E100900BC28DD
:1001780017308400843085006030860000308700A6
:100188000A3027240030840083308500A0308600A0
:1001980000308700423027242130840084308500D5
:1001A800203086000130870006302724FB014830C4
:1001B80084000030850018302D242100E801E90171
:1001C800EA01EB01EC01ED017E102000742B200008
:1001D800C00064036504031908000030A70000305C
:1001E800A6000030A5006430A400400886008701FE
:1001F800403FB200413FB3003208F2003308F30039
:10020800890D893B8909F400F5000030F9000030B8
:10021800F800FF30F700FF30F60042237508200091
:10022800AB007408AA007308A9007208A800C221CC
:1002380020002708B7002608B6002508B5002408BE
:10024800B4000030A7000030A6000030A5006430DC
:10025800A4004008023E86008701403FB200413FAB
:10026800B3003208F2003308F300890D893B89098D
:10027800F400F5000030F9000030F800FF30F70016
:10028800FF30F600422375082000AB007408AA006E
:100298007308A9007208A800C22120002708BB0023
:1002A8002608BA002508B9002408B8000030A700BD
:1002B8000030A6000030A5006430A4004008043EC9
:1002C80086008701403FB200413FB3003208F20088
:1002D8003308F300890D893B8909F400F5000030E3
:1002E800F9000030F800FF30F700FF30F600422335
:1002F80075082000AB007408AA007308A9007208EA
:10030800A800C22120002708BF002608BE00250833
:10031800BD002408BC0035083B00940020003408C8
:100328003B0093009F17200039083B00A4002000E1
:1003380038083B00A300AF1720003D083B00B4007D
:1003480020003C083B00B300BF1720006F082100C5
:10035800E70020006E082100E60020006D0821005B
:10036800E50020006C082100E40020006B08210053
:10037800E30020006A082100E20008002000AD0127
:10038800A71FD329A409A509A609A709A40A03191F
:10039800A50A0319A60A0319A70AAD01AD0AAB1FDE
:1003A800E429A809A909AA09AB09A80A0319A90AED
:1003B8000319AA0A0319AB0A0130FA007A08AD0634
:1003C8000030B1000030B0000030AF000030AE00A7
:1003D800270826042504240403192D2AAC01AC0A95
:1003E800A71B022A0130A435A50DA60DA70D890B60
:1003F800F7290130FA007A08AC07F4290130AE3544
:10040800AF0DB00DB10D890B032A27082B02031D70
:10041800172A26082A02031D172A25082902031D60
:10042800172A24082802031C222A2408A8022508BF
:10043800A93B2608AA3B2708AB3B2E140130A73658
:10044800A60CA50CA40C890B232A0130AC02031DB1
:10045800022A2D0803193B2AAE09AF09B009B109D0
:10046800AE0A0319AF0A0319B00A0319B10A310811
:10047800A7003008A6002F08A5002E08A400080031
:1004880001302000CC000030CD00D630EB200B30FE
:100498002000C2002630C1005D30890B512AC10BF3
:1004A800512AC20B512A00325A30EB200630200064
:1004B800C2001330C100AD30890B602AC10B602A1D
:1004C800C20B602A0032D630EB200B302000C2006D
:1004D8002630C1005D30890B6F2AC10B6F2AC20B11
:1004E8006F2A00325A30EB2006302000C200133049
:1004F800C100AD30890B7E2AC10B7E2AC20B7E2A31
:100508000032D630EB200B302000C2002630C1006C
:100518005D30890B8D2AC10B8D2AC20B8D2A0032C2
:100528005A30EB2006302000C2001330C100AD3035
:10053800890B9C2AC10B9C2AC20B9C2A00322000E2
:10054800CC01CD01CA01CB0121008C0120008C0116
:100558008B01210095012200970121009D019E0138
:100568006300080001303B009E0091019201930155
:1005780094018030960000309500C0309B00013017
:10058800AE00A101A201A301A4018030A6000030A1
:10059800A500C030AB000130BE00B101B201B3010B
:1005A800B4018030B6000030B500C030BB00200078
:1005B8005B08EF005A08EE005D08ED005C08EC00EF
:1005C8005F08EB005E08EA006F082100E7002000E2
:1005D8006E082100E60020006D082100E5002000DB
:1005E8006C082100E40020006B082100E3002000D3
:1005F8006A082100E20008005034003464340034F2
:1006080014340034643400340034003428340034A2
:10061800003400344B340034643400340034003483
:1006280064340034003400340034003400340034BE
:10063800643400340134003401340034903401341B
:10064800233400340034003464340034503400342B
:10065800643400340034003464340034003400342A
:100668000A34003464340034003400340034003474
:1006780064340034643400346434003400302000BE
:10068800A3000030A2000030A1000030A000721CBE
:10069800562B76082000A0077708A13D7808A23DD0
:1006A8007908A33D0130F635F70DF80DF90D890BE2
:1006B800572B0130F536F40CF30CF20C890B5E2B3A
:1006C8007508740473047204031D4B2B200023085F
:1006D800F5002208F4002108F3002008F2000800C1
:1006E800F223B622CA23DC30EB20E8302000C30016
:1006F8000330C400A023D030EB20E8302000C30032
:100708000330C400A023D630EB20E8302000C3001B
:100718000330C400A023C430EB20E8302000C3001D
:100728000330C400A023CA30EB20E8302000C30007
:100738000330C400A023BB2820004408803AC50029
:1007480080304502031DAA2B01304302031C080018
:1007580020004A034B04031DB62B4C084D04031D0F
:10076800B62B4422200064036504031908000630F0
:100778002000C5003030890BBF2BC50BBF2B0000F4
:10078800FF302000C307FF30C43DA02B6430200099
:10079800C3000030C400A02321009D149D18D22B53
:1007A8001C082000C600C7014608CE004708CF0035
:1007B8004F08803AC60080304602031DE52B4930B9
:1007C8004E02031CEE2B200060036104031DEE2B78
:1007D800442208002000E001E101080021009701FF
:1007E8007A30990023008C0122008C0121008C12A0
:1007F8000C118C100C108C150C1624008C150C1672
:10080800053021009500E0308B000130230097006F
:10081800C130220097007D3021009D0070309E007D
:1008280020008C16080001340034053400340134EB
:100838000034AF34003401340034413400346434BB
:10084800003400340034FE0012001E00FE0B282C79
:0E0858000034640080010131890B2E2C003425
:020000040001F9
:04000E00A4F9FFDF73
:00000001FF
